:0A02EB00C0F9A4B0999282F8809047
:1002D500010900010E00010D00010A00010C0001D9
:0502E5000B0001080000
:0D02AA0075F00A84E5F093F5807F057E0075
:1002B700D3EF9400EE940040147D787C00ED1D7020
:0D02C700011CED4C70F7EF1F70E61E80E388
:0102D4002207
:1001DF00A907AA0575A080E975F00A84E5F09002D9
:1001EF00EB1202B075A040E975F00A841202B075E7
:1001FF00A0207580BF1202B375A010EA1202AA7573
:10020F00A008EA75F00A841202B075A0047580BFC9
:10021F001202B375A002EB1202AA75A001EB75F0E2
:0C022F000A8493F5807F057E000202B770
:10017400758160E4F590758CFE758A0C758911752E
:10018400880575B80175B70375A887D28CAB09AD1E
:090194000EAF0D1201DF20B4F4DE
:10019D007812E6751000F511E4F50FE50FC378122E
:1001AD009650EAE50F75F003A42415F8E6FFE50F68
:1001BD0075F003A42414F8E6FDE50F75F003A424EF
:1001CD0013F8E6FB1201DF7FE87E031202B7050F7D
:0201DD0080C9D7
:030003000202F501
:0902F500750800759000C28E32FC
:0300130002027E68
:10027E00C0E0C0D075D000C007B2AB750800C28E0A
:10028E00759000758D00758B00E50C70047F0180F4
:0C029E00027F008F0CD007D0D0D0E032DF
:03001B0002023BA3
:10023B00C0E0C0D075D000C006C007AF087E00C3B9
:10024B00EF943C74809480500A758D00758B00B2CE
:10025B0093C292D3EF943BEE64809480400A758DE9
:10026B0075758B30C293B292B294D007D006D0D0B2
:03027B00D0E0329E
:03000B0002001ED2
:10001E00C0E0C0F0C0D075D000C000C006C00775EB
:10002E008CFE758A0C050BAF087E00EF640B701802
:10003E00E50D7014E50B6401700EE50C600AC28EBE
:10004E00758D00758B00D28EEF643C4E703FE50DC2
:10005E00703BE50B64017035E50C6031C28E758D19
:10006E0075758B30D28EE50A75F003A42413F8A6AD
:10007E0009E50A75F003A42414F8A60EE50A75F036
:10008E0003A42415F8A60D050A7812A60AD3E50BCB
:10009E009413748094804035750B00050DD3E50DD7
:1000AE00943B748094804025750D00050E0508D391
:1000BE00E50E943B748094804013750E000509D3B1
:1000CE00E5099417748094804003750900D007D019
:0A00DE0006D000D0D0D0F0D0E03200
:030000000200E813
:0C00E800787FE4F6D8FD75813502012F09
:1000F400020174E493A3F8E493A34003F68001F2AD
:1001040008DFF48029E493A3F85407240CC8C3330C
:10011400C4540F4420C8834004F456800146F6DFDB
:10012400E4800B01020408102040809002D5E47E94
:10013400019360BCA3FF543F30E509541FFEE493D0
:10014400A360010ECF54C025E060A840B8E493A397
:10015400FAE493A3F8E493A3C8C582C8CAC583CAC2
:10016400F0A3C8C582C8CAC583CADFE9DEE780BE7A
:0102EA000013
:00000001FF
