:0A02F200C0F9A4B0999282F8809040
:1002DC00010900010E00010D00010A00010C0001D2
:0502EC000B00010800F9
:0D02B10075F00A84E5F093F5807F327E0041
:1002BE00D3EF9400EE940040147D787C00ED1D7019
:0D02CE00011CED4C70F7EF1F70E61E80E381
:0102DB002200
:1001E600A907AA0575A080E975F00A84E5F09002D2
:1001F600F21202B775A040E975F00A841202B775CB
:10020600A0207580BF1202BA75A010EA1202B1755D
:10021600A008EA75F00A841202B775A0047580BFBB
:100226001202BA75A002EB1202B175A001EB75F0CD
:0C0236000A8493F5807F327E000202BE35
:10017400758160E4F590758CFD758A4475891175F7
:10018400880575B80175B70375A887D28CAB09AD1E
:090194000EAF0D1201E620B4F4D7
:10019D007812E6751000F5117FE87E031202BEE4B9
:1001AD00F50FE50FC378129650E3E50F75F003A434
:1001BD002415F8E6FFE50F75F003A42414F8E6FD09
:1001CD00E50F75F003A42413F8E6FB1201E67FE8B2
:0901DD007E031202BE050F80C969
:030003000202FCFA
:0902FC00750800759000C28E32F5
:0300130002028561
:10028500C0E0C0D075D000C007B2AB750800C28E03
:10029500759000758D00758B00E50C70047F0180ED
:0C02A500027F008F0CD007D0D0D0E032D8
:03001B000202429C
:10024200C0E0C0D075D000C006C007AF087E00C3B2
:10025200EF943C74809480500A758D00758B00B2C7
:1002620093C292D3EF943BEE64809480400A758DE2
:1002720075758B30C293B292B294D007D006D0D0AB
:03028200D0E03297
:03000B0002001ED2
:10001E00C0E0C0F0C0D075D000C000C006C00775EB
:10002E008CFD758A44050BAF087E00EF640B7018CB
:10003E00E50D7014E50B6401700EE50C600AC28EBE
:10004E00758D00758B00D28EEF643C4E703FE50DC2
:10005E00703BE50B64017035E50C6031C28E758D19
:10006E0075758B30D28EE50A75F003A42413F8A6AD
:10007E0009E50A75F003A42414F8A60EE50A75F036
:10008E0003A42415F8A60D050A7812A60AD3E50BCB
:10009E009413748094804035750B00050DD3E50DD7
:1000AE00943B748094804025750D00050E0508D391
:1000BE00E50E943B748094804013750E000509D3B1
:1000CE00E5099417748094804003750900D007D019
:0A00DE0006D000D0D0D0F0D0E03200
:030000000200E813
:0C00E800787FE4F6D8FD75813502012F09
:1000F400020174E493A3F8E493A34003F68001F2AD
:1001040008DFF48029E493A3F85407240CC8C3330C
:10011400C4540F4420C8834004F456800146F6DFDB
:10012400E4800B01020408102040809002DCE47E8D
:10013400019360BCA3FF543F30E509541FFEE493D0
:10014400A360010ECF54C025E060A840B8E493A397
:10015400FAE493A3F8E493A3C8C582C8CAC583CAC2
:10016400F0A3C8C582C8CAC583CADFE9DEE780BE7A
:0102F100000C
:00000001FF
