:0A030600C0F9A4B0999282F880902B
:1002F000010900010E00010D00010A00010C0001BE
:050300000B00010800E4
:1002960075F00A849003069390FF7CF07F057E003C
:1002A600D3EF9400EE940040147D787C00ED1D7031
:0D02B600011CED4C70F7EF1F70E61E80E399
:0102C3002218
:1001E500A907AA0590FF7E7401F0E975F00A84E578
:1001F500F012029A90FF7E7402F0E912029690FFC7
:100205007E7404F0EA75F00A84E5F09003069354D1
:100215007F12029E90FF7E7408F0EA12029690FF0C
:100225007E7410F0EB75F00A84E5F09003069354A4
:100235007F12029E90FF7E7420F0EB75F00A849089
:0E02450003069390FF7CF07F057E000202A668
:10017400758160E4F59090FF7F7480F0758CFE7556
:100184008A0C75891175880575B80175B70375A84A
:0F01940087D28CAB09AD0EAF0D1201E520B4F48C
:1001A3007812E6751000F511E4F50FE50FC3781228
:1001B3009650EAE50F75F003A42415F8E6FFE50F62
:1001C30075F003A42414F8E6FDE50F75F003A424E9
:1001D30013F8E6FB1201E57FE87E031202A6050F82
:0201E30080C9D1
:03000300020310E5
:09031000750800759000C28E32E0
:030013000202C422
:1002C400C0E0C0D075D000C007B2AB750800C28EC4
:1002D400759000758D00758B00E50C70047F0180AE
:0C02E400027F008F0CD007D0D0D0E03299
:03001B000202538B
:10025300C0E0C0D075D000C006C007AF087E00C3A1
:10026300EF943C74809480500A758D00758B00B2B6
:1002730093C292D3EF943BEE64809480400A758DD1
:1002830075758B30C293B292B294D007D006D0D09A
:03029300D0E03286
:03000B0002001ED2
:10001E00C0E0C0F0C0D075D000C000C006C00775EB
:10002E008CFE758A0C050BAF087E00EF640B701802
:10003E00E50D7014E50B6401700EE50C600AC28EBE
:10004E00758D00758B00D28EEF643C4E703FE50DC2
:10005E00703BE50B64017035E50C6031C28E758D19
:10006E0075758B30D28EE50A75F003A42413F8A6AD
:10007E0009E50A75F003A42414F8A60EE50A75F036
:10008E0003A42415F8A60D050A7812A60AD3E50BCB
:10009E009413748094804035750B00050DD3E50DD7
:1000AE00943B748094804025750D00050E0508D391
:1000BE00E50E943B748094804013750E000509D3B1
:1000CE00E5099417748094804003750900D007D019
:0A00DE0006D000D0D0D0F0D0E03200
:030000000200E813
:0C00E800787FE4F6D8FD75813502012F09
:1000F400020174E493A3F8E493A34003F68001F2AD
:1001040008DFF48029E493A3F85407240CC8C3330C
:10011400C4540F4420C8834004F456800146F6DFDB
:10012400E4800B01020408102040809002F0E47E79
:10013400019360BCA3FF543F30E509541FFEE493D0
:10014400A360010ECF54C025E060A840B8E493A397
:10015400FAE493A3F8E493A3C8C582C8CAC583CAC2
:10016400F0A3C8C582C8CAC583CADFE9DEE780BE7A
:0103050000F7
:00000001FF
