:0A039D00C0F9A4B0999282F8809094
:10037B00010900010E00010D00010A00010C000132
:05038B000B0001080059
:1003240075F00A8490039D9390FF22F07F037E0072
:10033400D3EF9400EE940040147D787C00ED1D70A2
:0D034400011CED4C70F7EF1F70E61E80E30A
:010351002289
:10025400A907AA0590FF21743EF0E975F00A84E528
:10026400F012032890FF21743DF0E912032490FF5B
:1002740021743BF0EA75F00A84E5F090039D9354F1
:100284007F12032C90FF217437F0EA12032490FFAD
:1002940021742FF0EB75F00A84E5F090039D9354DC
:1002A4007F12032C90FF21741FF0EB75F00A8490E9
:0E02B400039D9390FF22F07F037E000203342F
:10010600758160D293D292D29490FF207443F07599
:100116008CFE758A0C75891175880575B80175B7D9
:100126000375A887D28CAB09AD0EAF0D1202542011
:10013600B4F4E4F510C3E510946474809480502FF1
:1001460090FF21743DF07812E6FF75F00A84900363
:100156009D9390FF22F090FF21743EF0EF75F00A18
:1001660084E5F090039D9390FF22F0051080C67FF2
:10017600F47E01120334E4F50FE50FC378129650AE
:10018600AEE4F510C3E5109464748094805028E5BD
:100196000F75F003A42415F8E6FFE50F75F003A428
:1001A6002414F8E6FDE50F75F003A42413F8E6FB26
:1001B600120254051080CD7FF47E01120334050F20
:0201C60080B700
:0300030002039164
:0C039100750800D293D292D294C28E3232
:0300130002035293
:10035200C0E0C0D075D000C007B2AB750800C28E35
:10036200D293D292D294E50C70047F0180027F0076
:090372008F0CD007D0D0D0E0328E
:03001B000202C21C
:1002C200C0E0C0D075D000C006C007AF087E00C332
:1002D200EF940B74809480500A758D27758B10D221
:1002E20093D292D3EF940AEE648094804014EF94F8
:1002F2003CEE64809480500A758D00758B00B29339
:10030200D292D3EF943BEE64809480400A758D754F
:10031200758B30D293B292B294D007D006D0D0D09F
:02032200E032C7
:03000B0002001ED2
:10001E00C0E0C0F0C0D075D000C000C006C00775EB
:10002E008CFE758A0C050BAF087E00EF640A701803
:10003E00E50D7014E50B6401700EE50C600AC28EBE
:10004E00758D00758B00D28EEF640B4E7018E50D1A
:10005E007014E50B6401700EE50C600AC28E758D8E
:10006E0027758B10D28EE508643C703FE50D703B12
:10007E00E50B64017035E50C6031C28E758D7575BA
:10008E008B30D28EE50A75F003A42413F8A609E589
:10009E000A75F003A42414F8A60EE50A75F003A45D
:1000AE002415F8A60D050A7812A60AD3E50B9413AB
:1000BE00748094804035750B00050DD3E50D943B8F
:1000CE00748094804025750D00050E0508D3E50E4D
:1000DE00943B748094804013750E000509D3E50996
:1000EE009417748094804003750900D007D006D011
:0800FE0000D0D0D0F0D0E032B8
:030000000201C832
:0C01C800787FE4F6D8FD75813502020F47
:1001D400020106E493A3F8E493A34003F68001F23A
:1001E40008DFF48029E493A3F85407240CC8C3332C
:1001F400C4540F4420C8834004F456800146F6DFFB
:10020400E4800B010204081020408090037BE47E0C
:10021400019360BCA3FF543F30E509541FFEE493EF
:10022400A360010ECF54C025E060A840B8E493A3B6
:10023400FAE493A3F8E493A3C8C582C8CAC583CAE1
:10024400F0A3C8C582C8CAC583CADFE9DEE780BE99
:01039000006C
:00000001FF
