:0800E50002080000020A0000FD
:10000300758160E4F590F5C9F5C875CD3C75CCB044
:1000130075880185CCCA85CDCB75A8A1D2CA80FECF
:03002B000200BA16
:1000BA00C0E0C0D00509E50970020508D394AFE590
:1000CA000894044011850BA0050BE50B7002050A84
:0B00DA00750800750900D0D0D0E0329E
:0300000002002ECD
:0C002E00787FE4F6D8FD75810B020075A8
:10003A00020003E493A3F8E493A34003F68001F2D9
:10004A0008DFF48029E493A3F85407240CC8C333C7
:10005A00C4540F4420C8834004F456800146F6DF96
:10006A00E4800B01020408102040809000E5E47E41
:10007A00019360BCA3FF543F30E509541FFEE4938B
:10008A00A360010ECF54C025E060A840B8E493A352
:10009A00FAE493A3F8E493A3C8C582C8CAC583CA7D
:1000AA00F0A3C8C582C8CAC583CADFE9DEE780BE35
:0100ED000012
:00000001FF
